:04330000D3EF19F0FE
:10330800FACF2DF0FBCF2EF0E9CF2FF0DCEF1BF03A
:10331800D8CF1CF0E8CF1DF0E0CF1EF0FACF1FF099
:10332800FBCF20F0E9CF21F0EACF22F0E1CF23F064
:10333800E2CF24F0D9CF25F0DACF26F0F3CF27F06B
:10334800F4CF28F0F6CF29F0F7CF2AF0F8CF2BF0FA
:10335800F5CF2CF08CEF15F02CC0F5FF2BC0F8FF43
:103368002AC0F7FF29C0F6FF28C0F4FF27C0F3FFE3
:1033780026C0DAFF25C0D9FF24C0E2FF23C0E1FF41
:1033880022C0EAFF21C0E9FF20C0FBFF1FC0FAFFEF
:103398001EC0E0FF1DC0E8FF1CC0D8FF10009DEF55
:1033A8001CF0000E00018A6F000E896FBCEC1DF046
:1033B800A8EC1DF000018451000189250001966FD9
:1033C8000001855100018A210001976F0001865193
:1033D80000018B210001986F0001875100018C21A9
:1033E8000001996F00D0A8EC1DF00001895100017F
:1033F800965D00018A510001975900018B51000127
:10340800985900018C5100019959D8B07BD0A8EC8B
:103418001DF000018451000189250001966F00010B
:10342800855100018A210001976F00018651000132
:103438008B210001986F0001875100018C21000148
:10344800996F0001A351D8A45DD0000188510001F3
:10345800A419D8B417D00001A451010D600EF324AB
:10346800D96E000EF420DA6EDF5099EC1AF080C0A5
:1034780084F081C085F082C086F083C087F0A4C044
:1034880088F040D00DEC1DF0BEEC1DF00001A42B1F
:1034980080C084F081C085F082C086F083C087F048
:1034A8000001A4510001A55DD8B02CD0010E000187
:1034B800A36F000E0001A46F0001886923D0BDEC42
:1034C8001DF012000001A351D8B48DD7030E76EC7D
:1034D8001BF089D70001A351D8B485D7010E76EC2B
:1034E8001BF081D70001A351D8B47DD7000E76EC2C
:1034F8001BF079D70001A351D8B475D7020E76EC2A
:103508001BF071D7ECEC1CF0010AD8B4DBD7030A26
:10351800D8B4E8D7010AD8B4EDD7070AD8B4DAD7AF
:10352800010AD8B4CCD75FD7120000018A6F0DEC1E
:103538001DF05CD0000E00018B6F070E00018B653B
:1035480001D063D000018B51010D000EF324D96E18
:10355800070EF420DA6EFF0EDF6E00018B2BEDD71D
:1035680054D0000E00018C6F0F0E00018C6501D045
:103578004CD000018C51010D000EF324D96E070EBA
:10358800F420DA6E0F0EDF6E00018C2BEDD73DD0E4
:10359800080E00018D6F0F0E00018D6501D035D02A
:1035A80000018D51010D000EF324D96E070EF42091
:1035B800DA6EFF0EDF6E00018D2BEDD726D0000EE0
:1035C80000018E6F0F0E00018E6501D01ED0000124
:1035D8008E51010D000EF324D96E070EF420DA6E19
:1035E800F00EDF6E00018E2BEDD70FD000018A514F
:1035F800000AD8B49FD7010AD8B4B3D7030AD8B4FD
:10360800C7D7010AD8B4DBD700D0BEEC1DF0120032
:1036180042C089F0010E00018A6F41505FEC1CF036
:10362800BEEC1DF0A8EC1DF089C09AF08AC09BF092
:103638008BC09CF08CC09DF000D0A8EC1DF0000160
:10364800895100019A5D00018A5100019B590001CE
:103658008B5100019C5900018C5100019D59D8B033
:103668002ED0A8EC1DF0E80E0001892500019A6F04
:10367800030E00018A2100019B6F000E00018B21BF
:1036880000019C6F000E00018C2100019D6FFF0E50
:103698000701011BBEEC1DF012D0BDEC1DF012009D
:1036A80079EC1DF0CAD767EC1DF0C7D755EC1DF0B3
:1036B800C4D7D5EC19F012008BEC1DF0BED7ECEC9A
:1036C8001CF0010AD8B4ECD7030AD8B4EFD7010A22
:1036D800D8B4EFD7070AD8B4E6D7010AD8B4DDD7EB
:1036E800ACD712000001946F0001945199EC1AF0C4
:1036F80080C090F081C091F0C8EC1CF00DEC1DF07A
:10370800BEEC1DF00001A451010D600EF324D96E2A
:10371800000EF420DA6E00019451DE18D8A41AD0F5
:103728000001A42B0001A4510001A55DD8B012002E
:10373800030E0001916FE80E906FC8EC1CF00001B9
:10374800A52B000E0001A36F000E0001A46F00015D
:1037580088691200060E0001956F0ED011D0000185
:103768009551010D000EF324D96E070EF420DA6E80
:103778003C0EDF6E0001952B090E00019565EFD711
:10378800A5C00FF7BEEC1DF0000E0001A36F000EE0
:103798000001A46F00018869000E0001A56F0F0EDB
:1037A8000001916FA00E906FC8EC1CF0120012007F
:1037B800EACF30F0E1CF31F0E2CF32F0D9CF33F0B9
:1037C800DACF34F0F3CF35F0F4CF36F0F6CF37F068
:1037D800F7CF38F0F8CF39F0F5CF3AF09EA00BD0FC
:1037E800FA0ECF6E240ECE6E010E3B26000E3C2242
:1037F8003D223E229E9084EF15F03AC0F5FF39C075
:10380800F8FF38C0F7FF37C0F6FF36C0F4FF35C001
:10381800F3FF34C0DAFF33C0D9FF32C0E2FF31C052
:10382800E1FF30C0EAFF2FC0E9FF2EC0FBFF2DC02B
:10383800FAFF1100000E00018F6F000E8E6F00015D
:103848008B5100018C11D8B431D0010E00018D6F5D
:1038580007D00001D8908B378C3700018D2B00D012
:1038680000018CBF02D0F5D700D00001D8908E3768
:103878008F3700018B510001895D00018C510001D7
:103888008A59D8A00BD000018B510001895F000133
:103898008C5100018A5B00018E8100D00001D89014
:1038A8008C338B3300018D2FE0D700D08EC089F088
:1038B8008FC08AF0120000018D6F00018D51000841
:1038C80000018B6F070E00018B27010E00018C6F22
:1038D80000018B2B03D00001D8908C3700018B2F6F
:1038E800FAD700018C5100018E6F00018A05D8A417
:1038F8000DD000018951010D000EF324D96E070E79
:10390800F420DA6E00018E51DF12120000018E5190
:10391800FF0A00018B6F00018951010D000EF3248D
:10392800D96E070EF420DA6E00018B51DF161200F3
:1039380012000001A56BA46BA36B406A3F6A3E6A44
:103948003D6A3C6A3B6A800EF66E3A0EF76E000ED0
:10395800F86E00EE60F010EE29F00900F5CFEEFFEA
:10396800E550E150FAE1720EF66E3B0EF76E000E6E
:10397800F86E0900F5CF41F00900F5CF42F0000ECE
:10398800F86E000129EF1DF090C089F091C08AF00F
:10399800000E00018C6F0A0E8B6F1EEC1CF089C0A4
:1039A80090F08AC091F00DD09C0E0001926FD70E56
:1039B800E82EFED7922FFCD700F000019007D8A080
:1039C80091070001905100019111D8A4EDD7120080
:1039D80000C089F0000189A304D0000E006E010E1A
:1039E8001200000189A904D0000E006E040E120016
:1039F800000189A504D0000E006E020E120000011D
:103A080089A704D0000E006E030E1200000E1200EB
:103A18001200000E0001896F0F0E0001896502D0A7
:103A28001200120000018951010D000EF324D96E15
:103A3800070EF420DA6E000EDF6E0001892B0F0EE0
:103A480000018965EFD712001200000E0001916F86
:103A5800010E906FC8EC1CF0BAEC1DF0B1EC1DF033
:103A6800BBEC1DF00DEC1DF0BEEC1DF0A8EC1DF03C
:103A78000CEC1BF0D3EF19F0000001000202000368
:103A88000103010302000001000000000000000023
:103A98000000000000000000FA000000FA0000002A
:103AA800FF004250D8B412009DEC1DF0420642C0FF
:103AB80089F0010E00018A6F41505FEC1CF0BEECEA
:103AC8001DF012001200070E416012009DEC1DF05F
:103AD800412A42C089F0010E00018A6F41505FEC13
:103AE8001CF0BEEC1DF0120012004150D8B41200B8
:103AF8009DEC1DF0410642C089F0010E00018A6F5D
:103B080041505FEC1CF0BEEC1DF0120012000F0ECD
:103B1800426012009DEC1DF0422A42C089F0010E5D
:103B280000018A6F41505FEC1CF0BEEC1DF01200E2
:103B3800120042C089F0000E00018A6F41505FEC0C
:103B48001CF0BEEC1DF012003BC089F03CC08AF0AE
:103B58003DC08BF03EC08CF01200310ECD6E9F90B0
:103B68009E909D80F28CF28E1200040912001200C1
:063B780012001200120011
:020000040020DA
:08000000FFFFFFFFFFFFFFFF00
:020000040030CA
:0E0000002308183CFFD1A0FF00000000000004
:00000001FF
