:0418000053EF0CF0A6
:10180800FACF2DF0FBCF2EF0E9CF2FF05CEF0EF0E2
:10181800D8CF1CF0E8CF1DF0E0CF1EF0FACF1FF0B4
:10182800FBCF20F0E9CF21F0EACF22F0E1CF23F07F
:10183800E2CF24F0D9CF25F0DACF26F0F3CF27F086
:10184800F4CF28F0F6CF29F0F7CF2AF0F8CF2BF015
:10185800F5CF2CF004EF08F02CC0F5FF2BC0F8FFF3
:101868002AC0F7FF29C0F6FF28C0F4FF27C0F3FFFE
:1018780026C0DAFF25C0D9FF24C0E2FF23C0E1FF5C
:1018880022C0EAFF21C0E9FF20C0FBFF1FC0FAFF0A
:101898001EC0E0FF1DC0E8FF1CC0D8FF10001DEFF0
:1018A8000FF0000E00018A6F000E896F3CEC10F0FB
:1018B80028EC10F000018451000189250001966F81
:1018C8000001855100018A210001976F00018651AE
:1018D80000018B210001986F0001875100018C21C4
:1018E8000001996F00D028EC10F000018951000127
:1018F800965D00018A510001975900018B51000142
:10190800985900018C5100019959D8B07BD028EC26
:1019180010F000018451000189250001966F000133
:10192800855100018A210001976F0001865100014D
:101938008B210001986F0001875100018C21000163
:10194800996F0001A351D8A45DD00001885100010E
:10195800A419D8B417D00001A451010D600EF324C6
:10196800D96E000EF420DA6EDF5019EC0DF080C04D
:1019780084F081C085F082C086F083C087F0A4C05F
:1019880088F040D08DEC0FF03EEC10F00001A42B55
:1019980080C084F081C085F082C086F083C087F063
:1019A8000001A4510001A55DD8B02CD0010E0001A2
:1019B800A36F000E0001A46F0001886923D03DECDD
:1019C80010F012000001A351D8B48DD7030EF6EC25
:1019D8000DF089D70001A351D8B485D7010EF6ECD4
:1019E8000DF081D70001A351D8B47DD7000EF6ECD5
:1019F8000DF079D70001A351D8B475D7020EF6ECD3
:101A08000DF071D76CEC0FF0010AD8B4DBD7030ADC
:101A1800D8B4E8D7010AD8B4EDD7070AD8B4DAD7CA
:101A2800010AD8B4CCD75FD7120000018A6F8DECB9
:101A38000FF05CD0000E00018B6F070E00018B6564
:101A480001D063D000018B51010D000EF324D96E33
:101A5800070EF420DA6EFF0EDF6E00018B2BEDD738
:101A680054D0000E00018C6F0F0E00018C6501D060
:101A78004CD000018C51010D000EF324D96E070ED5
:101A8800F420DA6E0F0EDF6E00018C2BEDD73DD0FF
:101A9800080E00018D6F0F0E00018D6501D035D045
:101AA80000018D51010D000EF324D96E070EF420AC
:101AB800DA6EFF0EDF6E00018D2BEDD726D0000EFB
:101AC80000018E6F0F0E00018E6501D01ED000013F
:101AD8008E51010D000EF324D96E070EF420DA6E34
:101AE800F00EDF6E00018E2BEDD70FD000018A516A
:101AF800000AD8B49FD7010AD8B4B3D7030AD8B418
:101B0800C7D7010AD8B4DBD700D03EEC10F01200DA
:101B180042C089F0010E00018A6F4150DFEC0EF0DF
:101B28003EEC10F028EC10F089C09AF08AC09BF0C7
:101B38008BC09CF08CC09DF000D028EC10F0000108
:101B4800895100019A5D00018A5100019B590001E9
:101B58008B5100019C5900018C5100019D59D8B04E
:101B68002ED028EC10F0E80E0001892500019A6FAC
:101B7800030E00018A2100019B6F000E00018B21DA
:101B880000019C6F000E00018C2100019D6FFF0E6B
:101B980007010E1B3EEC10F012D03DEC10F01200C5
:101BA800F9EC0FF0CAD7E7EC0FF0C7D7D5EC0FF078
:101BB800C4D755EC0CF012000BEC10F0BED76CEC4F
:101BC8000FF0010AD8B4ECD7030AD8B4EFD7010A4A
:101BD800D8B4EFD7070AD8B4E6D7010AD8B4DDD706
:101BE800ACD712000001946F0001945119EC0DF06C
:101BF80080C090F081C091F048EC0FF08DEC0FF0B0
:101C08003EEC10F00001A451010D600EF324D96ED2
:101C1800000EF420DA6E00019451DE18D8A41AD010
:101C28000001A42B0001A4510001A55DD8B0120049
:101C3800030E0001916FE80E906F48EC0FF0000161
:101C4800A52B000E0001A36F000E0001A46F000178
:101C580088691200060E0001956F0ED011D00001A0
:101C68009551010D000EF324D96E070EF420DA6E9B
:101C78003C0EDF6E0001952B090E00019565EFD72C
:101C8800A5C00FF73EEC10F0000E0001A36F000E88
:101C98000001A46F00018869000E0001A56F0F0EF6
:101CA8000001916FA00E906F48EC0FF01200120027
:101CB800EACF30F0E1CF31F0E2CF32F0D9CF33F0D4
:101CC800DACF34F0F3CF35F0F4CF36F0F6CF37F083
:101CD800F7CF38F0F8CF39F0F5CF3AF09EA00BD017
:101CE800FA0ECF6E240ECE6E010E3B26000E3C225D
:101CF8003D223E229E9004EF08F03AC0F5FF39C01D
:101D0800F8FF38C0F7FF37C0F6FF36C0F4FF35C01C
:101D1800F3FF34C0DAFF33C0D9FF32C0E2FF31C06D
:101D2800E1FF30C0EAFF2FC0E9FF2EC0FBFF2DC046
:101D3800FAFF1100000E00018F6F000E8E6F000178
:101D48008B5100018C11D8B431D0010E00018D6F78
:101D580007D00001D8908B378C3700018D2B00D02D
:101D680000018CBF02D0F5D700D00001D8908E3783
:101D78008F3700018B510001895D00018C510001F2
:101D88008A59D8A00BD000018B510001895F00014E
:101D98008C5100018A5B00018E8100D00001D8902F
:101DA8008C338B3300018D2FE0D700D08EC089F0A3
:101DB8008FC08AF0120000018D6F00018D5100085C
:101DC80000018B6F070E00018B27010E00018C6F3D
:101DD80000018B2B03D00001D8908C3700018B2F8A
:101DE800FAD700018C5100018E6F00018A05D8A432
:101DF8000DD000018951010D000EF324D96E070E94
:101E0800F420DA6E00018E51DF12120000018E51AB
:101E1800FF0A00018B6F00018951010D000EF324A8
:101E2800D96E070EF420DA6E00018B51DF1612000E
:101E380012000001A56BA46BA36B406A3F6A3E6A5F
:101E48003D6A3C6A3B6A800EF66E1F0EF76E000E06
:101E5800F86E00EE60F010EE29F00900F5CFEEFF05
:101E6800E550E150FAE1720EF66E200EF76E000EA4
:101E7800F86E0900F5CF41F00900F5CF42F0000EE9
:101E8800F86E0001A9EF0FF090C089F091C08AF0B8
:101E9800000E00018C6F0A0E8B6F9EEC0EF089C04D
:101EA80090F08AC091F00DD09C0E0001926FD70E71
:101EB800E82EFED7922FFCD700F000019007D8A09B
:101EC80091070001905100019111D8A4EDD712009B
:101ED80000C089F0000189A304D0000E006E010E35
:101EE8001200000189A904D0000E006E040E120031
:101EF800000189A504D0000E006E020E1200000138
:101F080089A704D0000E006E030E1200000E120006
:101F18001200000E0001896F0F0E0001896502D0C2
:101F28001200120000018951010D000EF324D96E30
:101F3800070EF420DA6E000EDF6E0001892B0F0EFB
:101F480000018965EFD712001200000E0001916FA1
:101F5800010E906F48EC0FF03AEC10F031EC10F0F5
:101F68003BEC10F08DEC0FF03EEC10F028EC10F08C
:101F78008CEC0DF053EF0CF000000100020200039E
:101F8800010301030200000100000000000000003E
:101F98000000000000000000FA000000FA00000045
:101FA800FF004250D8B412001DEC10F0420642C0A7
:101FB80089F0010E00018A6F4150DFEC0EF03EEC13
:101FC80010F012001200070E416012001DEC10F014
:101FD800412A42C089F0010E00018A6F4150DFECAE
:101FE8000EF03EEC10F0120012004150D8B412006E
:101FF8001DEC10F0410642C089F0010E00018A6F05
:102008004150DFEC0EF03EEC10F0120012000F0E03
:10201800426012001DEC10F0422A42C089F0010E05
:1020280000018A6F4150DFEC0EF03EEC10F0120018
:10203800120042C089F0000E00018A6F4150DFECA7
:102048000EF03EEC10F012003BC089F03CC08AF064
:102058003DC08BF03EC08CF01200310ECD6E9F90CB
:102068009E909D80F28CF28E1200040912001200DC
:062078001200120012002C
:020000040020DA
:08000000FFFFFFFFFFFFFFFF00
:020000040030CA
:0E0000002308183CFFD1A0FF00000000000004
:00000001FF
